:400000000040002011000000D1060000D106000010B500F065FBC04610B51222194B1A6000F010FD302000F0B9FC00F03DFC164A164B1A600024164B1C60164B164A1A601D
:40004000A8214901154A1160154A1A60C0214901144A1160144A1A60144A154B1A60154B1C604122144B1A600132144B1A601449072000F0C9FB072000F0B0FB114B1C60C4
:4000800010BDC046300010400600008004010B40000301400000014040FF00800403014041FF00800803014042FF00804902040000010B4008010B4014010140080101402F
:4000C000310B00000C020B4010B572B600240FE024486200131959000B00411889881A5AC31858880004104300F0ECFA0134E4B2012CEDD91C4A1D4B1A60EE221C4B1A6050
:40010000EE2212021B4B1A6099221B4B1A6099231B041A4A13601A4A13601A4A13601A4A117806230B43DBB213700223174A13601749184A11600321174A11602131174A77
:400140001160D8210901164A1160164A13603121154A1160154A1360FFF75EFF00F0A2FA10BDC04684200000AA0000080000024000010240000302400007024000500F40B9
:4001800010500F4030500F4000700F4000000440310004000800044000010440080104400803044000070440080704401807044010B5064C2378002B07D1054B002B02D059
:4001C000044800E000BF0123237010BD480100200000000068200000084B10B5002B03D00749084800E000BF07480368002B00D110BD064B002BFBD09847F9E700000000C1
:400200004C01002068200000C00000200000000000B587B062B600F025F800F0C5F800F0B7FF0321032000F007F91720684400F05BF800280DD117236B441B7800930123EF
:400240000122022102A800F0BBF802A800F040F902E0034801F012F8642000F00DFBE4E76C2000007047C046F8B504000F00150000F0DEFE14220021402000F0D1FD142115
:40028000200000F05BFE142000F02CFE14220121402000F0C5FD060000240FE06B1E9C4205DA39191422002000F06CFE04E039191422012000F066FE0134E4B2AC4201D24F
:4002C000002EEBD0142000F00DFEC0B2F8BDC04610B582B001AC02222100FF20FFF7C4FF607802B010BDC04610B50400022201000220FFF7B9FF22789308D3182370002802
:4003000001D00023237010BDF8B500AF04000E00150000F08DFE2B000833DB08DB006A46D31A9D461C7032785A7072789A7000232A006946402000F09BFE050009E00848B0
:4003400000F09CFF0A220749200001F03EFE00F095FF00F055FE8307F1D5E8B2BD46F8BD74200000A401002000B583B001A980230B7000234B7002220020FFF7C5FF03B028
:4003800000BDC04600B583B00100A020000201F0EDFC031201A90B70487002220520FFF7B3FF03B000BDC04610B500F029FCFFF7DBFF6420FFF7E6FFFFF78AFF10BDC04641
:4003C00070B504001E00012000F010F820800823A370E51CF621280000F016F82418E670421C0499280000F01BF870BD80028023DB0018408901403B194001433F20024001
:40040000114308007047C04610B50400017000F085F8607000F07CF8A070032010BDC04610B50B0E8354531C0C14C454931C0C12C4540332815410BDF8B504000D0001F0FB
:4004400063F90F2020401A4E30603F212940194B1960194C00252570800108434005E060164FA760164B1B686360200001F016F801232370E560A760124B1B68636020008B
:4004800001F00CF8022323703368DB06FC22D2041343E360A7600C4B1B686360200000F0FDFF00F0F7FE09491C2000F0ADF9F8BDC4010020D8010020C8010020FFFF1F80B4
:4004C000A0002F40C0002F40E0002F407905000010B586B0002815D0038802AC02930023237163718278A271E3716B460593C11C0822684601F06DFD200001F01BF9002889
:4005000002D102E0022000E0012006B010BDC046014B18787047C046D8010020014B18787047C046C4010020124A93780133DBB293709378DBB20F2B02D900220D4B9A70EE
:400540000C4B1B78002B0BD00A4A53780133DBB253705378DBB20F2B02D90022054B5A70044A537891785B1A59424B41DBB213707047C0466401002070B580225201444B86
:400580001A60444B1B68DA0706D49A0706D45A0706D41B0706D406E0002404E0012402E0022400E003243C4B9A78D2B264013B4B9C4664442368DB0202D46168490D02E04F
:4005C0006168C90889B2364B500082189000C152314A9178C9B22068000C0F2528404D0069188D005D19A8709178C9B2A5682D0E4800411888001818C5709178C9B2A0681A
:40060000000CC0B24D0069188D005D1928719178C9B2A068000AC0B24D0069188D005D1968719178C9B2A568EDB2480041188800181885719178C9B2E5682D0E48004118F4
:4006400088001818C5719178C9B2E068000CC0B24D0069188D005D1928729178C9B2E068000AC0B24D0069188D005D1968729278D2B2E068C0B251008A1891005B1898729B
:40068000FFF752FF226801231343236070BDC04600002F4008002F4064010020A0002F40DC0100200323044A1360044A13600022034B1A607047C046300030403000314032
:4006C000000E3F4010B50A00002101F08BFC10BD10B501F037FC03680C2B00D1FEE7FEE770B50F4E0F4D13E029686B68AC68002202E001C901C30432A242FAD1E8680022E0
:4007000002E0002102C304328242FAD11035013E002EE9D101F01CFCFFF77AFDFEE7C046010000006C22000010B50E4A136801218B43136000230AE0032B03D89A000A49D2
:40074000505800E009489900094A885001332F2BF2D9FFF7B9FC034A116801230B43136010BDC0460000104000000000D10600000000002000230AE00D4A12683F210A408B
:400780000C49C95C8A4201D1033303E001332D2BF2D9032308490868084A02400A60084A944663441B78DBB2064A13607047C0462CFF0B409020000000002240FFFFFFBF15
:4007C000CDF1FF0F28FF0B40034B18688023DB05184000D001207047000022401F2318401E3B8340014A13607047C04600E100E01F2318401E3B8340014A13607047C046E5
:4008000080E100E001BE704770B504000D001F2802D90020FFF7F6FF1034A40080239B059C4664442068256070BDC04670B504000E00032902D90020FFF7E4FF1F2C02D94C
:400840000020FFF7DFFF03252540ED00063501F024F8A408A400074B9C46644421680323AB4099430B003100A9401943216001F018F870BD00E400E010B5040006E0084B2A
:40088000586801F001F8074B9C46644480231B029C42F4D8024B9868604300F0F5FF10BDC40000200080FFFF70B582B000F0EAF800285DD000F0F1FF050000230AE02D4A5E
:4008C00012683F210A402C49C95C8A4201D1033303E001332D2BF2D903230021274A1160274A1268D20606D1254802681F318A4313390A430260234C2168234A1140234A57
:400900005A438023DB019C466244D20B013A5205520D0B001343A0225203134323601C4B1B680193302000F0BFFF1A4A13688021C9050B4313602668174B1E40002407E010
:400940000120FFF799FF1034A30533430D4A1360EE2CF5D90120FFF78FFFFF239B051E43084B1E60019A0A4B1A60280000F099FF02B070BD2CFF0B409020000028FF0B408A
:4009800034FF0B400800224000F800C040420F003000104000002240FFFF3FC030B587B0040000F07AFF0500FFF70EFF002803D0FFF7E0FE012100E00021104B1B68009333
:4009C0000F4B1B680193033C0E4B1B5D02930E4B1B68039304AA0D4B04936B4605930C4B1A600C480C4A10601B68012901D1FFF75BFF280000F055FF07B030BD08010B406B
:400A000000010B409020000030001040B6EA000008001040170000800400104010B5034B1B7B584300F030FF10BDC046C4000020034B1868C0231B02184000D0012070476F
:400A400000010B4010B50D4B1A6801218A431A601A68022082431A60094A10683024A043203C204310601068093CA043014311601A68802109060A431A6010BD0000224091
:400A8000000F2240034B1B68002B01DA012000E0002070470000224010B500F0FEFE044A1368C02109020B43136000F0FAFE10BD00010B4010B500F0F0FE08490A68084BD3
:400AC0001A408024E40122430A600A6813408022120213430B6000F0E4FE10BD00010B40FF3FFFFF70B5050000F0D7FE0400FFF79FFF002803D0FFF7DDFF012100E000216A
:400B000008482840084A1568084B2B40184310601368012901D1FFF7BFFF200000F0C1FE70BDC0460404040010020B40FBFBFBFF10B5244B1B685B0715D5234B5B685B0789
:400B40000ED5224B596A042001401F4C62688A4362605A6A82435A629B69002B00D098470420FFF7BFFF174B1B685B0518D5164B5B685B0510D5154B596A8022D2001140BB
:400B8000114842688A434260596A114A0A405A62DB69002B00D098478020C000FFF7A2FF084B1B685B030CD5074B5B685B0304D5064B1B6A002B00D098478020C002FFF721
:400BC00091FF10BD10020B40D800002068010020FFFBFFFF10B50820FFF700FE10BDC04610B500F01DF810BD10B5044A1368802109060B431360FFF7EDFF10BD0000244065
:400C000010B5064B1B78002B04D1FFF7E9FF0122024B1A70FFF7E8FF10BDC0469001002010B50024184B1C60184A194B1A60194B194A1360194A1460194A1460194A13600C
:400C4000194B1C600820FFF7D3FD03210820FFF7EDFD16490820FFF7D7FD154B1C60154B1C60154B1C60154B1C60154B1C60154B1C601022144B1A70144B1C80144B1C6010
:400C8000144B1C6010BDC046000024407708008060002440070100800003244004032440100324400002244004022440FD180000C80E2440880E2440480F2440080F24403F
:400CC000C80F2440880F24409C020020BC020020A8020020B402002010B50E4A13685B005B08136000230C490B600C490B600C4804680C49214001600B490B600B490B60C1
:400D000010210B4B19701368802109060B43136010BDC04600002440680024406C00244060002440FF5CFFFF880F2440C80F24409C02002010B504000368002B09D001207A
:400D4000FFF76CFE2368013B2360002B03D0002003E0002001E08020000610BD10B5002839DBC023034208D00022284B1A601032274B1A70002310243DE0C3070FD5244B75
:400D80001B781B072BD5234B1B685B0001D5002300E0012310211E4A117001242BE0C30520D4830722D4C30605D51022184B1A70002300241FE0164B1B781B0719D5144B44
:400DC0001B78DB0701D5252200E02422104B1A70002300240FE00123802424060BE00123012408E001238024640004E00023022401E000230024012B02D1FFF76DFF02E04E
:400E0000054A064B1A60200010BDC046680024409C0200206000244017030000000F244070B582B004000D001600244B1B78102B40D10820FFF7DCFC214B1B68DB0734D42F
:400E4000FA239B005E43019600221E4B1A601E4A1E4B1A601E4A1F4B1A606400FF231C40002D03D12422154B1A7004E02522134B1A7001231C43184B1C600222174B1A605E
:400E8000124B1C680823FF3320001840144B1B68C02423401843040001A8FFF74BFF2043EED0FFF75BFF040000E008240820FFF795FC00E00424200002B070BD9C02002016
:400EC00064002440080F244017030000000F2440ED0F0000C00F24404002244068002440400F244010B582B0104B1B789B061AD5FA239B00584301900D4B1B689B0601D523
:400F0000182200E010220B4B1A600B4B18681223FF331840040001A8FFF70CFF2043F4D0FFF71CFF00E0042002B010BD9C0200206400244068002440000F244010B582B0DB
:400F40000D4B1B789B0613D5FA239B00594301910A4B18600A4B18680823FF331840040001A8FFF7E7FE2043F4D0FFF7F7FE00E0042002B010BDC0469C0200204002244039
:400F8000000F2440F0B583B004000D00164B1B789B0626D5FA239B005A430192134B18680223FF3318400700114B1B6804261E4001A8FFF7BFFE384333000343EED0002E26
:400FC00005D00C4B1B682B700B4A094B1A60FFF7C5FE002806D1002C04D10422074B1A6000E0042003B0F0BD9C020020000F2440C00F244040032440ED0F000068002440A2
:4010000010B50820FFF7F4FB074B1C88A2B21400064B1B789B0602D504231A4394B20820FFF7DCFB200010BDBC0200209C02002010B50820FFF7DCFB044B1C88A4B20022B7
:401040001A800820FFF7CAFB200010BDBC020020054B1B682022134000D0082301221343024A13607047C0466400244068002440F0B583B001900C0017001D00002917D083
:401080002A4B1B78102B08D10820FFF7B1FB284B1B68DB070ED508260FE0244B1B78602B0AD1244A138808218B431380002604E0042602E0002600E00426002E2FD12822B9
:4010C0001A4B1A7000231C4A13601C4A13601C4B1F601C4B1C60EAB21B4B1A70019B5C00FF231C40134A138802218B4313804023164A13601649174A11601421FF31164AB9
:401100001160164A1360EB0704D5FFF7A1FF144B1C6004E0124B1C600222124B1A600820FFF75CFB300003B0F0BDC0469C02002064002440BC020020A4020020B40200206C
:40114000C0020020B8020020A0020020800F244017030000000F2440080F2440880F2440400224406800244010B500F075F810BD10B500F01DF810BD10B5044A13688021D4
:4011800009060B431360FFF7EFFF10BD0000274010B5064B1B78002B04D1FFF7E9FF0122024B1A70FFF7E8FF10BDC04698010020154A164B1A600023154A13601549164A70
:4011C0001160164A16490A6007201649086016490B6006381549086015490A60154A13600421154A1160154A1360154A1360154A1360154A1360154A1360154A13601268A4
:40120000144B1A807047C0460F000002000027404000274001000A00480027400700008000032740040327401003274044002740000227400402274050002740880E274011
:40124000C80E2740480F2740080F2740C80F2740880F27409A01002005490B68F0229343603A13430B60034B1A88034B1A607047000702409A010020880F274070B505005F
:40128000002402E000F0DAFC0134285D0028F9D170BDC046054B1A6801210A431A601B68194201D1012000E00020704704002F4010B50E4A0E4B1A60FFF7ECFF1C20FFF7CA
:4012C0008DFA0C4A116801230B431360F0231B0100E0013B002B03D0064A1268D207F8D5002B01D1012000E0002010BD0110000000002F4010002F4003B2002B0DDB094AF5
:401300001168094B0B400004034313601268074B1340984203D0012002E0022000E000207047C04614002F40FFFF00800000FF7F002809D10C4B19680C4A0A401A601B6834
:40134000DB040CD501300DE0074B1A68802149010A431A601B680B4203D1012002E0002000E000207047C04614002F40FFEFFFFF70B5841EE4B20D2C35D88C1EE4B2052C02
:4013800003D9002B31D1012931D1032A31D8904231D3914231D31C4D2C68240AE4B20F26B44320432E68194C3440000204432C602C686040F0242401204220D1002B00D0C6
:4013C00002234901C9B29200D2B2114319430E4A1368EE2083430B4313601368034099420FD0ED380EE002200CE002200AE0022008E0022006E0022004E0022002E00120F3
:4014000000E0002070BDC04614002F40FFF0FFFF002809D10B4B1A6810218A431A601B6819420BD001300CE0064B1A6810210A431A601B68194203D1012002E0002000E061
:401440000020704714002F40002809D10B4B1A6801218A431A601B6819420BD001300CE0064B1A6801210A431A601B68194203D1012002E0002000E00020704714002F402E
:40148000054B18601B681B041B0C984201D0012000E000207047C04604002F4010B503785B01204A944663441F4A41680A431A6003785B01634419681C4A11401C4A446877
:4014C0002240914224D182681A6103785B0163441A6981688A421DD1C2685A6103785B0163445A69C1688A4216D1012252429A6103785B0163449A6901320FD10022DA6114
:4015000003785B016344DB69002B09D0012008E0012006E0012004E0012002E0012000E0002010BDA0002F40800080007F007F007FFF7FFF10B503781B01104A944663449F
:401540000F4A41680A431A6003781B01634419680C4A11400C4A4468224091420AD182685A6003781B0163445A6883689A4203D0012002E0012000E0002010BD20002F406C
:4015800008008000F7007F00F7FF7FFF70B500240AE063001B199800104B1818FFF7CAFF002805D10134E4B2072CF2D9002500E00125002D0BD00FE0230108486030C01848
:4015C000FFF76CFF002806D10134E4B200E000240F2CF1D900E00125280070BDC0200000002809D10C4B19680C4A0A401A601B689B040CD501300DE0074B1A688021890168
:401600000A431A601B680B4203D1012002E0002000E000207047C04614002F40FFDFFFFF10B580221206344B1A60344A136801218B431360C8231B0200E0013B002B03D00A
:401640002E4A1268D207F8D4002B4AD01C20FFF7CFF82B491C20FFF7D7F803211C20FFF7E5F81F20FFF748FE00281AD1FFF760FE002818D1FFF7B4FF002816D100230222FB
:4016800003210430FFF774FE002810D10130FFF7BFFE00280DD1FFF7D7FE00280BD001230AE0012308E0012306E0012304E0012302E0012300E00023002B14D1FFF766FFE5
:4016C000002812D10F48FFF7DBFE00280FD10B4B1A6807218A431A601B68194209D0013008E0012006E0012004E0012002E0012000E0002010BDC04600042F4010002F40A5
:40170000311700000110000010B5084B1B78002B02D1FFF785FF00E00020002804D10122024B1A70FFF7C4FD10BDC0469C0100207047C046F8B54F464646C0B404000120CB
:401740000023984691E04C4B1B6832041A427AD12379002B01D1002701E08027BF036379002B07D12B01454A94466344226852055A6009E080235B031F432B013F4A944665
:4017800063442268D2005A60A379072B03D81B041F43B94603E080231B031F43B946E379002B03D004234A461A43914600232AE0032B13D92801324A9446604402689446CB
:4017C0005907CA1AD1003831FF228A4067469743E268D25C8A403A43026012E02801274A94466044826894465907CA1AD1001831FF228A4067469743E268D25C8A403A437B
:4018000082600133DBB2A279934201D2072BCFD91C20FEF7EDFF2B01184A94466344194A4F4617431F60227A002A04D0196803220A431A6003E0196801220A431A601C20DA
:40184000FEF7CCFF00207600F6B2002807D00135EDB201E001260025072D00D873E7002806D043460133DBB298464346022BF1D90CBC90469946F8BD08002F4020002F4025
:401880002C002F40080080000230800803D00138FDD1C046C046C0467047EFF3108072B6704780F31088704770B50400FFF7F5FF0500102C05D8104A136803218B4313602A
:4018C00016E0202C07D80C490B6803229343023A13430B600CE0302C07D807490B6803229343013A13430B6002E00020FEF78AFF2800FFF7D6FF70BD3000104010B5AF4B47
:401900001B68002B00D09847AD4B1B68DB0702D50022AC4B1A60AC4B1B789B0628D5AB4B1B68DB0507D5AA4A1188C0239B000B431380012300E00023A44A1268D20706D5F7
:40194000A34A118890239B000B4313800123002B0FD09D4A1278D20701D5012200E002229B49088802430A800021974A117000E00023954A1278920600D417E1934A126850
:40198000D20611D51022934B1A608F4B1B78DB0701D5012300E002238D4A11880B4313801022894B1A7007E1874A1278120720D5864A126892070AD50222864B1A60844A60
:4019C000118888239B000B431380012311E07E4A1278D20703D525217B4A117009E02421794A11707C4A1268002A02D014397B4A1160754A1278520700D4AEE0724A127808
:401A0000D20749D5764A1268120727D5754A1268754909681F240C40744909686418141B082C09D8002C16D1714A1168714B0B401360012308340EE008240CE06B4A116826
:401A40006D48006841186D480068C0B20870116801311160013C002CF0D119E0604A1268520715D5614A116863480068411863480068C0B208701168013111601168594A7E
:401A80001268914203D204215D4A116000E001235C495D4A116060E04C4A1268920726D502224C4B1A6059490B681D321A40096880231B020B4000D001239B18544A1168F5
:401AC000CB1A13601268534B1A60414A118884239B000B431380504B1A68802149020A431A6019684D4A0A401A60012335E04C4A1268D2061ED427E0454A1168364A1268ED
:401B000091421DD2344A1268013A414909688A4204D1402243490A6030490A603C4A11684148006841180978C9B240480160116801311160354A12681F210A40082ADBD12E
:401B40001021384A116008E0354A1268520604D52F4B1A682F4B1A600123002B2CD0244A1168244B0B4013600023314A13601B4A1360304B1B789B070ED5134B1B78DB0791
:401B800001D5092300E00A23114A11880B43138060220D4B1A700FE0274B1B689B0601D5182200E01022164B1A6005E0064B1B78DB0601D4FFF790F810BDC04694010020D6
:401BC0008C0E2440880E24409C0200200C0F2440BC020020000F2440C0020020880F2440CC0F2440AC02002008032440A802002060002440FFFEFFFFB00200204003244004
:401C000068002440ED0F0000C00F244008022440A4020020B402002004022440FFFFFEFF8C0F2440800F2440B802002040022440C80F2440A002002064002440044B1B6831
:401C40001F221340082BF9D0024B18607047C0460802274040022740002243088B4274D303098B425FD3030A8B4244D3030B8B4228D3030C8B420DD3FF22090212BA030C22
:401C80008B4202D31212090265D0030B8B4219D300E0090AC30B8B4201D3CB03C01A5241830B8B4201D38B03C01A5241430B8B4201D34B03C01A5241030B8B4201D30B0329
:401CC000C01A5241C30A8B4201D3CB02C01A5241830A8B4201D38B02C01A5241430A8B4201D34B02C01A5241030A8B4201D30B02C01A5241CDD2C3098B4201D3CB01C01A25
:401D0000524183098B4201D38B01C01A524143098B4201D34B01C01A524103098B4201D30B01C01A5241C3088B4201D3CB00C01A524183088B4201D38B00C01A524143080B
:401D40008B4201D34B00C01A5241411A00D20146524110467047FFE701B5002000F0F0F802BDC0460029F7D076E7704703460B437FD4002243088B4274D303098B425FD323
:401D8000030A8B4244D3030B8B4228D3030C8B420DD3FF22090212BA030C8B4202D31212090265D0030B8B4219D300E0090AC30B8B4201D3CB03C01A5241830B8B4201D300
:401DC0008B03C01A5241430B8B4201D34B03C01A5241030B8B4201D30B03C01A5241C30A8B4201D3CB02C01A5241830A8B4201D38B02C01A5241430A8B4201D34B02C01A2F
:401E00005241030A8B4201D30B02C01A5241CDD2C3098B4201D3CB01C01A524183098B4201D38B01C01A524143098B4201D34B01C01A524103098B4201D30B01C01A5241B0
:401E4000C3088B4201D3CB00C01A524183088B4201D38B00C01A524143088B4201D34B00C01A5241411A00D201465241104670475DE0CA0F00D04942031000D34042534076
:401E800000229C4603098B422DD3030A8B4212D3FC22890112BA030A8B420CD3890192118B4208D3890192118B4204D389013AD0921100E08909C3098B4201D3CB01C01AF7
:401EC000524183098B4201D38B01C01A524143098B4201D34B01C01A524103098B4201D30B01C01A5241C3088B4201D3CB00C01A524183088B4201D38B00C01A5241D9D2EA
:401F000043088B4201D34B00C01A5241411A00D20146634652415B10104601D34042002B00D54942704763465B1000D3404201B5002000F005F802BD0029F8D016E7704764
:401F40007047C046014B18687047C046400100200E4B70B500251E000D4CE41AA410A54204D0AB00F35898470135F8E700F06CF9084B00251E00084CE41AA410A54204D09D
:401F8000AB00F35898470135F8E770BD5422000054220000542200005C220000931E10B50C00222B02D9002008700DE00A2A06D1002804DA2D2340420B70012100E000217A
:401FC000611800F017F8200010BD10B5FFF7E6FF10BD002310B59A4203D0CC5CC4540133F9E710BD03008218934202D019700133FAE77047F0B58FB0170006000C0025226A
:40200000184904A8FFF7E5FF0020BB1E0500222B01D9207023E06B1C0293E31801933000013B39000393FFF79DFE04AB5B5C039A300013703900FFF70FFE061E01D0029D04
:40204000E9E7019B187023001A1B954206DD1A78615D197062550133013DF5E720000FB0F0BDC04622220000000000004641494C000000000D0A575249544520544F3A20CB
:402080000A0D000000300F40000400400F400004030405060708090A0B0C0E0F101112131415161718191B1C1D1E1F2021222325262728292A2B2E2F303132333435000003
:4020C0000000000008008800000000000100000008008800000000000200000008008800000000000300000008008800000000000400000008008800000000000500000001
:40210000080088000000000006000000080088000000000007000000080088000000000000000000A8008000FFFFFFFF0000000001000000A8008000FFFFFFFF0000000099
:4021400002000000A8008000FFFFFFFF0000000003000000A8008000FFFFFFFF00000000040000000000000000000000000000000500000000000000000000000000000009
:402180000600000000000000000000000000000007000000000000000000000000000000080000000000000000000000000000000900000000000000000000000000000001
:4021C0000A0000000000000000000000000000000B0000000000000000000000000000000C0000000000000000000000000000000D000000000000000000000000000000B1
:402200000E0000000000000000000000000000000F0000000000000000000000000000004300303132333435363738396162636465666768696A6B6C6D6E6F7071727374DF
:4022400075767778797A0000F8B5C046F8BC08BC9E467047D901000029070000F8B5C046F8BC08BC9E467047B101000080220000C0000020880000008001000000000000BE
:4022800000000000010000000000204E409C000028000000005A6202F0000000040404000000000000000000000000000000000000000000000000000000000000000000F1
:4022C000202200000000000000000000000000000000000000000000000000000000000000000000000000000000000000000000000000000000000000000000000000009C
:40230000E00000200000000000000000000000000000000000000000000000000000000000000000000000000000000000000000000000000000000000000000000000009D
:40234000000000000000000000000000000000000000000000000000000000000000000000000000000000000000000000000000000000000000000000000000000000005D
:40238000000000000000000000000000000000000000000000000000000000000000000000000000000000000000000000000000000000000000000000000000000000001D
:4023C00000000000000000000000000000000000000000000000000000000000000000000000000000000000000000000000000000000000000000000000000000000000DD
:40240000000000000000000000000000000000000000000000000000000000000000000000000000000000000000000000000000000000000000000000000000000000009C
:020000040001F9
:0200000490303A
:020000006B692A
:0200000490402A
:4000000000000000000000000000000000000000000000000000000000000000000000000000000000000000000000000000000000000000000000000000000000000000C0
:400040000000000000000000000000000000000000000000000000000000000000000000000000000000000000000000000000000000000000000000000000000000000080
:0200000490501A
:0C0000000002112E11A1000111387D0A30
:0200000490600A
:0100000001FE
:00000001FF