:400000000080002011000000510400005104000010B500F025FAC04610B512221D4B1A60302000F063FC1C4A1C4B1A60882292011B4B1A601B4B1C4A1A60E82252011B49A6
:400040000A601B4919601B490A601B4919601B490A601B4A1A60802212061A4B1A608022D202194B1A604322184B1A60013A184B1A60023A174B1A600132174B1A60174913
:40008000082000F057FB082000F03EFB0022144B1A6010BD300010400600008004010B400C0301400000014043FF00800803014042FF00800003014040FF008004030140BC
:4000C00041FF008008010B4000010B4014010140100101400C01014008010140690B00000C020B4010B572B600240FE029486200131959000B00411889881A5AC318588897
:400100000004104300F09EF90134E4B2012CEDD9EE221204204B1A60EE23204A1360EE2109021F4A11601F4A136099221E4B1A6099231B041D4A13601D4A13601D4A136053
:400140001D4A13601D4A117806230B43DBB2137030221B4B1A60902292021A4B1A600322194B1A60242319490B60D82000011849086018490A60184A1360223B174A13602D
:400180003121174A1160174A1360FFF745FF00F049F910BD7C250000000002400001024000030240000502400006024000500F4010500F4040500F4070500F4000700F4019
:4001C0000000044008000440000104400801044008030440000504400805044000060440080604401806044010B5064C2378002B07D1054B002B02D0044800E000BF0123E5
:40020000237010BD480100200000000068250000084B10B5002B03D00749084800E000BF07480368002B00D110BD064B002BFBD09847F9E7000000004C0100206825000090
:40024000C00000200000000000B583B062B600F037F800F0DBF86B46D81D00F077F8002804D16B46D9790C3000F004F8642000F099FAF0E770B504000D0000F08DFE0428D4
:40028000FBD000F051FF0428F7D0FA2252000021200000F0E1FD05E0FA2252000121200000F0DAFD0428F7D1002807D1FA2252002900013000F032FE002000E0012070BD3D
:4002C00010B500F0B9FC00F095FE10BDF8B504000F00150001F06EF914220021402001F061F81421200001F0EBF8142001F0BCF814220121402001F055F8060000240FE005
:400300006B1E9C4205DA39191422002001F0FCF804E039191422012001F0F6F80134E4B2AC4201D2002EEBD0142001F09DF8C0B2F8BDC04610B582B001AC02222100FF201A
:40034000FFF7C4FF607802B010BDC04610B50400022201000420FFF7B9FF2378DB082370002801D00023237010BDC046F8B500AF04000E00150001F01DF92B000833DB0841
:40038000DB006A46D31A9D461C7032785A7072789A7000232A006946402001F02BF9050009E0084801F0A2F90A220749200002F08CF801F09BF901F0E5F88307F1D5E8B264
:4003C000BD46F8BD6C250000C801002000B583B001A980230B7000234B7002220020FFF7C5FF03B000BDC04600B583B00100A020000201F03BFF031201A90B7048700222DD
:400400000520FFF7B3FF03B000BDC04610B500F0B9FEFFF7DBFF6420FFF7E6FFFFF78AFF10BDC0460323044A1360044A13600022034B1A607047C0463000304030003140FC
:40044000000E3F4010B50A00002102F04BF810BD10B501F0F7FF03680C2B00D1FEE7FEE770B50F4E0F4D13E029686B68AC68002202E001C901C30432A242FAD1E8680022E2
:4004800002E0002102C304328242FAD11035013E002EE9D101F0DCFFFFF7D6FEFEE7C046010000000426000010B50E4A136801218B43136000230AE0032B03D89A000A4999
:4004C000505800E009489900094A885001332F2BF2D9FFF707FE034A116801230B43136010BDC04600001040000000005104000000000020074B1B78272B05D8064B1B78D0
:40050000DBB2064A136004E0054B1B78DBB2034A1360704702F3FF0F42F3FF0F20FF0B40C1F1FF0F00230AE0204A12683F210A401F49C95C8A4201D1033303E001332D2BC5
:40054000F2D903231B4A12781B2A16D8302B05D1194B1B78DBB2194A136006E0182B04D1174B1B78DBB2154A136016490B681F229343173A13430B6016E0302B05D1124B0C
:400580001B78DBB20D4A136006E0182B04D10F4B1B78DBB2094A13600A4A13681F218B430B4909780B4313607047C0462CFF0B408825000002F3FF0F3FF3FF0F28FF0B400B
:4005C0003EF3FF0F34FF0B40C3F1FF0FC2F1FF0FC0F1FF0F00230AE00D4A12683F210A400C49C95C8A4201D1033303E001332D2BF2D9032308490868084A02400A60084AB5
:40060000944663441B78DBB2064A13607047C0462CFF0B408825000000002240FFFFFFBF4DF3FF0F28FF0B40034B18688023DB05184000D0012070470000224010B50B4ACB
:40064000136801218B431360094B1A68094B1A60094A12685A60FFF765FFFFF74BFF074A116802230B43136010BDC04650000C4034FF0B406401002020FF0B4024002C40BB
:4006800030B500230AE0134A12683F210A401249C95C8A4201D1033303E001332D2BF2D903230E490A68022082430A600C4C21681F2291430B4805682A400A432260416861
:4006C000094A1160094A944663441B78DBB2084A136030BD2CFF0B408825000024002C4034FF0B406401002020FF0B404DF3FF0F28FF0B40034B1B680220184000D0012074
:400700007047C04624002C401F2318401E3B8340014A13607047C04600E100E01F2318401E3B8340014A13607047C04680E100E001BE704770B504000D001F2802D900201A
:40074000FFF7F6FF1034A40080239B059C4664442068256070BDC04670B504000E00032902D90020FFF7E4FF1F2C02D90020FFF7DFFF03252540ED00063500F0CEFFA4082A
:40078000A400074B9C46644421680323AB4099430B003100A9401943216000F0C2FF70BD00E400E010B5040006E0084B586800F0ABFF074B9C46644480231B029C42F4D8FD
:4007C000024B9868604300F09FFF10BDC40000200080FFFF70B582B000F070F9002862D000F09BFF0500314A116801230B43136000230AE02E4A12683F210A402D49C95C96
:400800008A4201D1033303E001332D2BF2D903230021294A1160294A1268D20606D1274802681F318A4313390A430260244C2168244A1140244A5A438023DB019C46624428
:40084000D20B013A5205520D0B001343A0225203134323601D4B1B680193302000F064FF1B4A13688021C9050B4313602668194B1E40002407E00120FFF794FF1034A30536
:4008800033430F4A1360EE2CF5D90120FFF78AFFFF239B051E430A4B1E60019A0B4B1A60280000F03EFF02B070BDC04650000C402CFF0B408825000028FF0B4034FF0B4024
:4008C0000800224000F800C040420F003000104000002240FFFF3FC010B5034B1B7B584300F012FF10BDC046C4000020F0B55F4656464D464446F0B483B0040000F00DFF90
:400900000190FFF791FE002804D0FFF763FE01239A4601E000239A46FFF7ECFE002808D0182C01D0302C07D1FFF7AAFE01239B4604E000239B4601E000239B46E61E2D2E6E
:4009400074D8464B1B78DBB29C4208D8444B1B78DBB29946434B1B78DBB2984631E0424B1B78DBB29C4208D8404B1B78DBB299463F4B1B78DBB2984623E03E4B1B78DBB268
:400980009C4208D83C4B1B78DBB299463B4B1B78DBB2984615E03A4B1B78DBB29C4208D8384B1B78DBB29946374B1B78DBB2984607E0364B1B78DBB29946354B1B78DBB20E
:4009C0009846344B9F5D2F2F09D92A2C07D91922314B1A60052000F097FE192503E02E4B1D683F231D40BD4206D92A4B9A5D2A4B1A60052000F088FE254B9C466444237806
:400A0000DBB2264A1360264B4A461A60254B42461A600520FFF760FFBD420AD21D4B9A5D1D4B1A60052000F06FFE02E00020FFF77FFE5346012B01D1FFF7CCFE5B46012BA8
:400A400001D1FFF7FBFD019800F06BFE03B03CBC90469946A246AB46F0BDC04640F3FF0F41F3FF0F42F3FF0F43F3FF0F44F3FF0F45F3FF0F46F3FF0F47F3FF0F48F3FF0F6B
:400A800049F3FF0F4AF3FF0F4BF3FF0F4CF3FF0F4DF3FF0F882500002CFF0B4028FF0B401CFF0B4020FF0B40034B1868C0231B02184000D00120704700010B40034B1B686A
:400AC000002B01DA012000E0002070470000224010B500F022FE044A1368C02109020B43136000F01EFE10BD00010B4010B500F014FE08490A68084B1A408024E401224321
:400B00000A600A6813408022120213430B6000F008FE10BD00010B40FF3FFFFF70B5050000F0FBFD0400FFF7BFFF002803D0FFF7DDFF012100E0002108482840084A156883
:400B4000084B2B40184310601368012901D1FFF7BFFF200000F0E5FD70BDC0460404040010020B40FBFBFBFF10B5244B1B685B0715D5234B5B685B070ED5224B596A042076
:400B800001401F4C62688A4362605A6A82435A629B69002B00D098470420FFF7BFFF174B1B685B0518D5164B5B685B0510D5154B596A8022D2001140114842688A43426040
:400BC000596A114A0A405A62DB69002B00D098478020C000FFF7A2FF084B1B685B030CD5074B5B685B0304D5064B1B6A002B00D098478020C002FFF791FF10BD10020B4099
:400C0000D800002084010020FFFBFFFF10B50920FFF77AFD10BDC04610B500F01DF810BD10B5044A1368802109060B431360FFF7EDFF10BD0000244010B5064B1B78002B74
:400C400004D1FFF7E9FF0122024B1A70FFF7E8FF10BDC046AC01002010B50024184B1C60184A194B1A60194B194A1360194A1460194A1460194A1360194B1C600920FFF785
:400C80004DFD03210920FFF767FD16490920FFF751FD154B1C60154B1C60154B1C60154B1C60154B1C60154B1C601022144B1A70144B1C80144B1C60144B1C6010BDC046B0
:400CC0000000244077080080600024400701008000032440040324401003244000022440040224407D170000C80E2440880E2440480F2440080F2440C80F2440880F2440F8
:400D0000E80100200C020020080200200402002010B50E4A13685B005B08136000230C490B600C490B600C4804680C49214001600B490B600B490B6010210B4B19701368E0
:400D4000802109060B43136010BDC04600002440680024406C00244060002440FF5CFFFF880F2440C80F2440E801002010B504000368002B09D00120FFF7AEFD2368013B12
:400D80002360002B03D0002003E0002001E08020000610BD10B5002839DBC023034208D00022284B1A601032274B1A70002310243DE0C3070FD5244B1B781B072BD5234B39
:400DC0001B685B0001D5002300E0012310211E4A117001242BE0C30520D4830722D4C30605D51022184B1A70002300241FE0164B1B781B0719D5144B1B78DB0701D5252295
:400E000000E02422104B1A70002300240FE00123802424060BE00123012408E001238024640004E00023022401E000230024012B02D1FFF76DFF02E0054A064B1A60200065
:400E400010BDC04668002440E80100206000244017030000000F244070B582B004000D001600244B1B78102B40D10920FFF756FC214B1B68DB0734D4FA239B005E43019673
:400E800000221E4B1A601E4A1E4B1A601E4A1F4B1A606400FF231C40002D03D12422154B1A7004E02522134B1A7001231C43184B1C600222174B1A60124B1C680823FF33D0
:400EC00020001840144B1B68C02423401843040001A8FFF74BFF2043EED0FFF75BFF040000E008240920FFF70FFC00E00424200002B070BDE801002064002440080F24400B
:400F000017030000000F2440ED0F0000C00F24404002244068002440400F2440F0B583B004000D00164B1B789B0626D5FA239B005A430192134B18680223FF3318400700DB
:400F4000114B1B6804261E4001A8FFF70FFF384333000343EED0002E05D00C4B1B682B700B4A094B1A60FFF715FF002806D1002C04D10422074B1A6000E0042003B0F0BDB0
:400F8000E8010020000F2440C00F244040032440ED0F00006800244010B50920FFF7BEFB074B1C88A2B21400064B1B789B0602D504231A4394B20920FFF7A6FB200010BD45
:400FC0000C020020E801002010B50B20FFF79CFB10BDC04610B500F01DF810BD10B5044A1368802109060B431360FFF7EDFF10BD0000264010B5064B1B78002B04D1FFF720
:40100000E9FF0122024B1A70FFF7E8FF10BDC046B401002010B50024184B1C60184A194B1A60194B194A1360194A1460194A1460194A1360194B1C600B20FFF76FFB0321F4
:401040000B20FFF789FB16490B20FFF773FB154B1C60154B1C60154B1C60154B1C60154B1C60154B1C601022144B1A70144B1C80144B1C60144B1C6010BDC04600002640B0
:401080007708008060002640070100800003264004032640100326400002264004022640BD1A0000C80E2640880E2640480F2640080F2640C80F2640880F26400E0200200D
:4010C00014020020240200202002002010B50E4A13685B005B08136000230C490B600C490B600C4804680C49214001600B490B600B490B6010210B4B197013688021090636
:401100000B43136010BDC04600002640680026406C00264060002640FF5CFFFF880F2640C80F26400E02002010B50B20FFF7F6FA074B1C88A2B21400064B1B789B0602D5FC
:4011400004231A4394B20B20FFF7DEFA200010BD140200200E02002010B50A20FFF7D4FA10BDC04610B500F01DF810BD10B5044A1368802109060B431360FFF7EDFF10BD8E
:401180000000254010B5064B1B78002B04D1FFF7E9FF0122024B1A70FFF7E8FF10BDC046BC01002010B50024184B1C60184A194B1A60194B194A1360194A1460194A1460CC
:4011C000194A1360194B1C600A20FFF7A7FA03210A20FFF7C1FA16490A20FFF7ABFA154B1C60154B1C60154B1C60154B1C60154B1C60154B1C601022144B1A70144B1C8017
:40120000144B1C60144B1C6010BDC046000025407708008060002540070100800003254004032540100325400002254004022540FD1D0000C80E2540880E2540480F25404A
:40124000080F2540C80F2540880F25403402002054020020400200204C02002010B50E4A13685B005B08136000230C490B600C490B600C4804680C49214001600B490B601C
:401280000B490B6010210B4B19701368802109060B43136010BDC04600002540680025406C00254060002540FF5CFFFF880F2540C80F25403402002010B504000368002B92
:4012C00009D00120FFF708FB2368013B2360002B03D0002003E0002001E08020000610BD10B5002839DBC023034208D00022284B1A601032274B1A70002310243DE0C307B0
:401300000FD5244B1B781B072BD5234B1B685B0001D5002300E0012310211E4A117001242BE0C30520D4830722D4C30605D51022184B1A70002300241FE0164B1B781B07B8
:4013400019D5144B1B78DB0701D5252200E02422104B1A70002300240FE00123802424060BE00123012408E001238024640004E00023022401E000230024012B02D1FFF7C9
:401380006DFF02E0054A064B1A60200010BDC04668002540340200206000254017030000000F254070B582B004000D001600244B1B78102B40D10A20FFF7B0F9214B1B68D8
:4013C000DB0734D4FA239B005E43019600221E4B1A601E4A1E4B1A601E4A1F4B1A606400FF231C40002D03D12422154B1A7004E02522134B1A7001231C43184B1C600222CB
:40140000174B1A60124B1C680823FF3320001840144B1B68C02423401843040001A8FFF74BFF2043EED0FFF75BFF040000E008240A20FFF769F900E00424200002B070BD9F
:401440003402002064002540080F254017030000000F2540ED0F0000C00F25404002254068002540400F254010B582B0104B1B789B061AD5FA239B00584301900D4B1B68B7
:401480009B0601D5182200E010220B4B1A600B4B18681223FF331840040001A8FFF70CFF2043F4D0FFF71CFF00E0042002B010BD340200206400254068002540000F25403B
:4014C00010B582B00D4B1B789B0613D5FA239B00594301910A4B18600A4B18680823FF331840040001A8FFF7E7FE2043F4D0FFF7F7FE00E0042002B010BDC04634020020CB
:4015000040022540000F2540F0B583B004000D00164B1B789B0626D5FA239B005A430192134B18680223FF3318400700114B1B6804261E4001A8FFF7BFFE384333000343E4
:40154000EED0002E05D00C4B1B682B700B4A094B1A60FFF7C5FE002806D1002C04D10422074B1A6000E0042003B0F0BD34020020000F2540C00F254040032540ED0F000061
:401580006800254010B50A20FFF7C8F8074B1C88A2B21400064B1B789B0602D504231A4394B20A20FFF7B0F8200010BD540200203402002010B50A20FFF7B0F8044B1C8834
:4015C000A4B200221A800A20FFF79EF8200010BD54020020054B1B682022134000D0082301221343024A13607047C0466400254068002540F0B583B001900C0017001D0029
:40160000002917D02A4B1B78102B08D10A20FFF785F8284B1B68DB070ED508260FE0244B1B78602B0AD1244A138808218B431380002604E0042602E0002600E00426002E9A
:401640002FD128221A4B1A7000231C4A13601C4A13601C4B1F601C4B1C60EAB21B4B1A70019B5C00FF231C40134A138802218B4313804023164A13601649174A1160142179
:40168000FF31164A1160164A1360EB0704D5FFF7A1FF144B1C6004E0124B1C600222124B1A600A20FFF730F8300003B0F0BDC0463402002064002540540200203C02002091
:4016C0004C020020580200205002002038020020800F254017030000000F2540080F2540880F2540400225406800254070B50500002402E000F022FD0134285D0028F9D1DD
:4017000070BDC046000000000230800803D00138FDD1C046C046C0467047EFF3108072B6704780F31088704770B50400FFF7F5FF0500102C05D8104A136803218B4313609B
:4017400016E0202C07D80C490B6803229343023A13430B600CE0302C07D807490B6803229343013A13430B6002E00020FEF7E0FF2800FFF7D6FF70BD3000104010B5AF4B72
:401780001B68002B00D09847AD4B1B68DB0702D50022AC4B1A60AC4B1B789B0628D5AB4B1B68DB0507D5AA4A1188C0239B000B431380012300E00023A44A1268D20706D579
:4017C000A34A118890239B000B4313800123002B0FD09D4A1278D20701D5012200E002229B49088802430A800021974A117000E00023954A1278920600D417E1934A1268D2
:40180000D20611D51022934B1A608F4B1B78DB0701D5012300E002238D4A11880B4313801022894B1A7007E1874A1278120720D5864A126892070AD50222864B1A60844AE1
:40184000118888239B000B431380012311E07E4A1278D20703D525217B4A117009E02421794A11707C4A1268002A02D014397B4A1160754A1278520700D4AEE0724A127889
:40188000D20749D5764A1268120727D5754A1268754909681F240C40744909686418141B082C09D8002C16D1714A1168714B0B401360012308340EE008240CE06B4A1168A8
:4018C0006D48006841186D480068C0B20870116801311160013C002CF0D119E0604A1268520715D5614A116863480068411863480068C0B208701168013111601168594A00
:401900001268914203D204215D4A116000E001235C495D4A116060E04C4A1268920726D502224C4B1A6059490B681D321A40096880231B020B4000D001239B18544A116876
:40194000CB1A13601268534B1A60414A118884239B000B431380504B1A68802149020A431A6019684D4A0A401A60012335E04C4A1268D2061ED427E0454A1168364A12686E
:4019800091421DD2344A1268013A414909688A4204D1402243490A6030490A603C4A11684148006841180978C9B240480160116801311160354A12681F210A40082ADBD1B0
:4019C0001021384A116008E0354A1268520604D52F4B1A682F4B1A600123002B2CD0244A1168244B0B4013600023314A13601B4A1360304B1B789B070ED5134B1B78DB0713
:401A000001D5092300E00A23114A11880B43138060220D4B1A700FE0274B1B689B0601D5182200E01022164B1A6005E0064B1B78DB0601D4FFF76CF910BDC046B00100205E
:401A40008C0E2440880E2440E80100200C0F24400C020020000F2440FC010020880F2440CC0F2440F8010020080324400802002060002440FFFEFFFFF401002040032440C1
:401A800068002440ED0F0000C00F244008022440F00100200402002004022440FFFFFEFF8C0F2440800F24400002002040022440C80F2440EC0100206400244010B5AF4B98
:401AC0001B68002B00D09847AD4B1B68DB0702D50022AC4B1A60AC4B1B789B0628D5AB4B1B68DB0507D5AA4A1188C0239B000B431380012300E00023A44A1268D20706D536
:401B0000A34A118890239B000B4313800123002B0FD09D4A1278D20701D5012200E002229B49088802430A800021974A117000E00023954A1278920600D417E1934A12688E
:401B4000D20611D51022934B1A608F4B1B78DB0701D5012300E002238D4A11880B4313801022894B1A7007E1874A1278120720D5864A126892070AD50222864B1A60844A9E
:401B8000118888239B000B431380012311E07E4A1278D20703D525217B4A117009E02421794A11707C4A1268002A02D014397B4A1160754A1278520700D4AEE0724A127846
:401BC000D20749D5764A1268120727D5754A1268754909681F240C40744909686418141B082C09D8002C16D1714A1168714B0B401360012308340EE008240CE06B4A116865
:401C00006D48006841186D480068C0B20870116801311160013C002CF0D119E0604A1268520715D5614A116863480068411863480068C0B208701168013111601168594ABC
:401C40001268914203D204215D4A116000E001235C495D4A116060E04C4A1268920726D502224C4B1A6059490B681D321A40096880231B020B4000D001239B18544A116833
:401C8000CB1A13601268534B1A60414A118884239B000B431380504B1A68802149020A431A6019684D4A0A401A60012335E04C4A1268D2061ED427E0454A1168364A12682B
:401CC00091421DD2344A1268013A414909688A4204D1402243490A6030490A603C4A11684148006841180978C9B240480160116801311160354A12681F210A40082ADBD16D
:401D00001021384A116008E0354A1268520604D52F4B1A682F4B1A600123002B2CD0244A1168244B0B4013600023314A13601B4A1360304B1B789B070ED5134B1B78DB07CF
:401D400001D5092300E00A23114A11880B43138060220D4B1A700FE0274B1B689B0601D5182200E01022164B1A6005E0064B1B78DB0601D4FFF7AAF910BDC046B8010020D5
:401D80008C0E2640880E26400E0200200C0F264014020020000F264018020020880F2640CC0F264010020020080326402402002060002640FFFEFFFF1C02002040032640C2
:401DC00068002640ED0F0000C00F264008022640300200202002002004022640FFFFFEFF8C0F2640800F26402C02002040022640C80F2640280200206400264010B5AF4B7D
:401E00001B68002B00D09847AD4B1B68DB0702D50022AC4B1A60AC4B1B789B0628D5AB4B1B68DB0507D5AA4A1188C0239B000B431380012300E00023A44A1268D20706D5F2
:401E4000A34A118890239B000B4313800123002B0FD09D4A1278D20701D5012200E002229B49088802430A800021974A117000E00023954A1278920600D417E1934A12684B
:401E8000D20611D51022934B1A608F4B1B78DB0701D5012300E002238D4A11880B4313801022894B1A7007E1874A1278120720D5864A126892070AD50222864B1A60844A5B
:401EC000118888239B000B431380012311E07E4A1278D20703D525217B4A117009E02421794A11707C4A1268002A02D014397B4A1160754A1278520700D4AEE0724A127803
:401F0000D20749D5764A1268120727D5754A1268754909681F240C40744909686418141B082C09D8002C16D1714A1168714B0B401360012308340EE008240CE06B4A116821
:401F40006D48006841186D480068C0B20870116801311160013C002CF0D119E0604A1268520715D5614A116863480068411863480068C0B208701168013111601168594A79
:401F80001268914203D204215D4A116000E001235C495D4A116060E04C4A1268920726D502224C4B1A6059490B681D321A40096880231B020B4000D001239B18544A1168F0
:401FC000CB1A13601268534B1A60414A118884239B000B431380504B1A68802149020A431A6019684D4A0A401A60012335E04C4A1268D2061ED427E0454A1168364A1268E8
:4020000091421DD2344A1268013A414909688A4204D1402243490A6030490A603C4A11684148006841180978C9B240480160116801311160354A12681F210A40082ADBD129
:402040001021384A116008E0354A1268520604D52F4B1A682F4B1A600123002B2CD0244A1168244B0B4013600023314A13601B4A1360304B1B789B070ED5134B1B78DB078C
:4020800001D5092300E00A23114A11880B43138060220D4B1A700FE0274B1B689B0601D5182200E01022164B1A6005E0064B1B78DB0601D4FFF7D2F810BDC046C001002063
:4020C0008C0E2540880E2540340200200C0F254054020020000F254058020020880F2540CC0F254044020020080325404002002060002540FFFEFFFF480200204003254066
:4021000068002540ED0F0000C00F2540080225403C0200204C02002004022540FFFFFEFF8C0F2540800F25405002002040022540C80F25403802002064002540044B1B68C3
:402140001F221340082BF9D0024B18607047C0460802274040022740002243088B4274D303098B425FD3030A8B4244D3030B8B4228D3030C8B420DD3FF22090212BA030C1D
:402180008B4202D31212090265D0030B8B4219D300E0090AC30B8B4201D3CB03C01A5241830B8B4201D38B03C01A5241430B8B4201D34B03C01A5241030B8B4201D30B0324
:4021C000C01A5241C30A8B4201D3CB02C01A5241830A8B4201D38B02C01A5241430A8B4201D34B02C01A5241030A8B4201D30B02C01A5241CDD2C3098B4201D3CB01C01A20
:40220000524183098B4201D38B01C01A524143098B4201D34B01C01A524103098B4201D30B01C01A5241C3088B4201D3CB00C01A524183088B4201D38B00C01A5241430806
:402240008B4201D34B00C01A5241411A00D20146524110467047FFE701B5002000F0F0F802BDC0460029F7D076E7704703460B437FD4002243088B4274D303098B425FD31E
:40228000030A8B4244D3030B8B4228D3030C8B420DD3FF22090212BA030C8B4202D31212090265D0030B8B4219D300E0090AC30B8B4201D3CB03C01A5241830B8B4201D3FB
:4022C0008B03C01A5241430B8B4201D34B03C01A5241030B8B4201D30B03C01A5241C30A8B4201D3CB02C01A5241830A8B4201D38B02C01A5241430A8B4201D34B02C01A2A
:402300005241030A8B4201D30B02C01A5241CDD2C3098B4201D3CB01C01A524183098B4201D38B01C01A524143098B4201D34B01C01A524103098B4201D30B01C01A5241AB
:40234000C3088B4201D3CB00C01A524183088B4201D38B00C01A524143088B4201D34B00C01A5241411A00D201465241104670475DE0CA0F00D04942031000D34042534071
:4023800000229C4603098B422DD3030A8B4212D3FC22890112BA030A8B420CD3890192118B4208D3890192118B4204D389013AD0921100E08909C3098B4201D3CB01C01AF2
:4023C000524183098B4201D38B01C01A524143098B4201D34B01C01A524103098B4201D30B01C01A5241C3088B4201D3CB00C01A524183088B4201D38B00C01A5241D9D2E5
:4024000043088B4201D34B00C01A5241411A00D20146634652415B10104601D34042002B00D54942704763465B1000D3404201B5002000F005F802BD0029F8D016E770475F
:402440007047C046014B18687047C046400100200E4B70B500251E000D4CE41AA410A54204D0AB00F35898470135F8E700F0B8F8084B00251E00084CE41AA410A54204D04D
:40248000AB00F35898470135F8E770BDEC250000EC250000EC250000F4250000931E10B50C00222B02D9002008700DE00A2A06D1002804DA2D2340420B70012100E0002109
:4024C000611800F017F8200010BD10B5FFF7E6FF10BD002310B59A4203D0CC5CC4540133F9E710BD03008218934202D019700133FAE77047F0B58FB0170006000C00252265
:40250000184904A8FFF7E5FF0020BB1E0500222B01D9207023E06B1C0293E31801933000013B39000393FFF79DFE04AB5B5C039A300013703900FFF70FFE061E01D0029DFF
:40254000E9E7019B187023001A1B954206DD1A78615D197062550133013DF5E720000FB0F0BDC046B8250000000000000D0A575249544520544F3A200A0D000000300F40B3
:40258000000800400F400008030405060708090A0B0C0E0F101112131415161718191B1C1D1E1F2021222325262728292A2B2E2F30313233343543003031323334353637AD
:4025C00038396162636465666768696A6B6C6D6E6F707172737475767778797A00000000F8B5C046F8BC08BC9E46704711020000A9040000F8B5C046F8BC08BC9E467047FF
:40260000E901000018260000C000002088000000180100000000000000000000010000000000C05D80BB000030000000006CDC02F000000004040400000000000000000022
:40264000000000000000000000000000000000000000000000000000B62500000000000000000000000000000000000000000000000000000000000000000000000000007F
:40268000000000000000000000000000000000000000000000000000E00000200000000000000000000000000000000000000000000000000000000000000000000000001A
:4026C00000000000000000000000000000000000000000000000000000000000000000000000000000000000000000000000000000000000000000000000000000000000DA
:402700000000000000000000000000000000000000000000000000000000000000000000000000000000000000000000000000000000000000000000000000000000000099
:402740000000000000000000000000000000000000000000000000000000000000000000000000000000000000000000000000000000000000000000000000000000000059
:402780000000000000000000000000000000000000000000000000000000000000000000000000000000000000000000000000000000000000000000000000000000000019
:020000040003F7
:0200000490303A
:02000000ACD082
:0200000490402A
:4000000000000000000000000000000000000000000000000000000000000000000000000000000000000000000000000000000000000000000000000000000000000000C0
:400040000000000000000000000000000000000000000000000000000000000000000000000000000000000000000000000000000000000000000000000000000000000080
:0200000490501A
:0C0000000002101111A00001101CBE70C5
:0200000490600A
:0100000001FE
:00000001FF