:400000000080002011000000110300001103000010B500F085F9C04610B51222194B1A60302000F0C3FB184A184B1A60E8225201174B1A60174B1849196018490A601849F9
:40004000196018490A60184A1A6080221206174B1A608022D202164B1A604222154B1A60023A154B1A600132144B1A601449082000F0C0FA082000F0A7FA0022114B1A6039
:4000800010BDC046300010400600008004010B40080301400000014042FF00800003014040FF00800403014041FF008008010B4000010B40100101400C0101400801014034
:4000C000290A00000C020B4010B572B600240FE024486200131959000B00411889881A5AC31858880004104300F00CF90134E4B2012CEDD9EE2212041B4B1A60EE231B4AF7
:400100001360EE2109021A4A11601A4A136099231B04194A1360194A1360194A1360194A1360194A117806230B43DBB213703022164B1A6090229202154B1A600322154B0E
:400140001A60242314490B60D82000011349086013490A60134A1360FFF75EFF00F0C2F810BDC046901D00000000024000010240000302400005024000500F4010500F40C7
:4001800040500F4070500F4000700F400000044008000440000104400801044008030440000504400805044010B5064C2378002B07D1054B002B02D0044800E000BF012376
:4001C000237010BD48010020000000008C1D0000084B10B5002B03D00749084800E000BF07480368002B00D110BD064B002BFBD09847F9E7000000004C0100208C1D000099
:40020000C00000200000000010B582B062B600F03FFD00F071FC082000F018FD00F03AFF0C2000F0E1FF6B46DC1D2100082000F00BF8207800F054F801000C2000F02AF8FB
:40024000642000F00FFAEEE770B504000D0000F0F3FE0428FBD000F0F3FC0228F7D0FA2252000121200000F023FE05E0FA2252000121200000F01CFE0428F7D1002807D1FA
:40028000FA2252002900013000F098FE012000E0002070BD70B504000D0000F0CDFE0428FBD000F09BFF2028F7D0FA2252000021200000F0FDFD05E0FA22520000212000F4
:4002C00000F0F6FD0428F7D1002806D1FA214900280000F04FFE012000E0002070BDC0467047C0460323044A1360044A13600022034B1A607047C0463000304030003140BE
:40030000000E3F4010B50A00002101F037FD10BD10B501F007FD03680C2B00D1FEE7FEE770B50F4E0F4D13E029686B68AC68002202E001C901C30432A242FAD1E868002225
:4003400002E0002102C304328242FAD11035013E002EE9D101F0ECFCFFF756FFFEE7C04601000000F01D000010B50E4A136801218B43136000230AE0032B03D89A000A4969
:40038000505800E009489900094A885001332F2BF2D9FFF799FE034A116801230B43136010BDC04600001040000000001103000000000020074B1B78272B05D8064B1B78C0
:4003C000DBB2064A136004E0054B1B78DBB2034A1360704702F3FF0F42F3FF0F20FF0B40C1F1FF0F00230AE0204A12683F210A401F49C95C8A4201D1033303E001332D2B07
:40040000F2D903231B4A12781B2A16D8302B05D1194B1B78DBB2194A136006E0182B04D1174B1B78DBB2154A136016490B681F229343173A13430B6016E0302B05D1124B4D
:400440001B78DBB20D4A136006E0182B04D10F4B1B78DBB2094A13600A4A13681F218B430B4909780B4313607047C0462CFF0B409C1D000002F3FF0F3FF3FF0F28FF0B4040
:400480003EF3FF0F34FF0B40C3F1FF0FC2F1FF0FC0F1FF0F00230AE00D4A12683F210A400C49C95C8A4201D1033303E001332D2BF2D9032308490868084A02400A60084AF6
:4004C000944663441B78DBB2064A13607047C0462CFF0B409C1D000000002240FFFFFFBF4DF3FF0F28FF0B40034B18688023DB05184000D0012070470000224010B50B4A01
:40050000136801218B431360094B1A68094B1A60094A12685A60FFF765FFFFF74BFF074A116802230B43136010BDC04650000C4034FF0B406401002020FF0B4024002C40FC
:4005400030B500230AE0134A12683F210A401249C95C8A4201D1033303E001332D2BF2D903230E490A68022082430A600C4C21681F2291430B4805682A400A4322604168A2
:40058000094A1160094A944663441B78DBB2084A136030BD2CFF0B409C1D000024002C4034FF0B406401002020FF0B404DF3FF0F28FF0B40034B1B680220184000D00120A9
:4005C0007047C04624002C401F2318401E3B8340014A13607047C04600E100E01F2318401E3B8340014A13607047C04680E100E001BE704770B504000D001F2802D900205C
:40060000FFF7F6FF1034A40080239B059C4664442068256070BDC04670B504000E00032902D90020FFF7E4FF1F2C02D90020FFF7DFFF03252540ED00063500F0EAFDA40851
:40064000A400074B9C46644421680323AB4099430B003100A9401943216000F0DEFD70BD00E400E010B5040006E0084B586800F0C7FD074B9C46644480231B029C42F4D80A
:40068000024B9868604300F0BBFD10BDC40000200080FFFF70B582B000F070F9002862D000F0B7FD0500314A116801230B43136000230AE02E4A12683F210A402D49C95CA3
:4006C0008A4201D1033303E001332D2BF2D903230021294A1160294A1268D20606D1274802681F318A4313390A430260244C2168244A1140244A5A438023DB019C4662446A
:40070000D20B013A5205520D0B001343A0225203134323601D4B1B680193302000F080FD1B4A13688021C9050B4313602668194B1E40002407E00120FFF794FF1034A3055D
:4007400033430F4A1360EE2CF5D90120FFF78AFFFF239B051E430A4B1E60019A0B4B1A60280000F05AFD02B070BDC04650000C402CFF0B409C1D000028FF0B4034FF0B403F
:400780000800224000F800C040420F003000104000002240FFFF3FC010B5034B1B7B584300F02EFD10BDC046C4000020F0B55F4656464D464446F0B483B0040000F029FD9D
:4007C0000190FFF791FE002804D0FFF763FE01239A4601E000239A46FFF7ECFE002808D0182C01D0302C07D1FFF7AAFE01239B4604E000239B4601E000239B46E61E2D2EB0
:4008000074D8464B1B78DBB29C4208D8444B1B78DBB29946434B1B78DBB2984631E0424B1B78DBB29C4208D8404B1B78DBB299463F4B1B78DBB2984623E03E4B1B78DBB2A9
:400840009C4208D83C4B1B78DBB299463B4B1B78DBB2984615E03A4B1B78DBB29C4208D8384B1B78DBB29946374B1B78DBB2984607E0364B1B78DBB29946354B1B78DBB24F
:400880009846344B9F5D2F2F09D92A2C07D91922314B1A60052000F0B3FC192503E02E4B1D683F231D40BD4206D92A4B9A5D2A4B1A60052000F0A4FC254B9C466444237813
:4008C000DBB2264A1360264B4A461A60254B42461A600520FFF760FFBD420AD21D4B9A5D1D4B1A60052000F08BFC02E00020FFF77FFE5346012B01D1FFF7CCFE5B46012BD0
:4009000001D1FFF7FBFD019800F087FC03B03CBC90469946A246AB46F0BDC04640F3FF0F41F3FF0F42F3FF0F43F3FF0F44F3FF0F45F3FF0F46F3FF0F47F3FF0F48F3FF0F92
:4009400049F3FF0F4AF3FF0F4BF3FF0F4CF3FF0F4DF3FF0F9C1D00002CFF0B4028FF0B401CFF0B4020FF0B40034B1868C0231B02184000D00120704700010B40034B1B689F
:40098000002B01DA012000E0002070470000224010B500F03EFC044A1368C02109020B43136000F03AFC10BD00010B4010B500F030FC08490A68084B1A408024E401224314
:4009C0000A600A6813408022120213430B6000F024FC10BD00010B40FF3FFFFF70B5050000F017FC0400FFF7BFFF002803D0FFF7DDFF012100E0002108482840084A156890
:400A0000084B2B40184310601368012901D1FFF7BFFF200000F001FC70BDC0460404040010020B40FBFBFBFF10B5244B1B685B0715D5234B5B685B070ED5224B596A04209C
:400A400001401F4C62688A4362605A6A82435A629B69002B00D098470420FFF7BFFF174B1B685B0518D5164B5B685B0510D5154B596A8022D2001140114842688A43426081
:400A8000596A114A0A405A62DB69002B00D098478020C000FFF7A2FF084B1B685B030CD5074B5B685B0304D5064B1B6A002B00D098478020C002FFF791FF10BD10020B40DA
:400AC000D800002084010020FFFBFFFF10B50920FFF77AFD10BDC04610B500F01DF810BD10B5044A1368802109060B431360FFF7EDFF10BD0000244010B5064B1B78002BB6
:400B000004D1FFF7E9FF0122024B1A70FFF7E8FF10BDC046AC01002010B500241B4B1C601B4A1C4B1A601C4B1C4A13601C4A14601C491D4A11601D4A13601D4B1C6009203C
:400B4000FFF74CFD03210920FFF766FD19490920FFF750FD184B1C60184B1C604C22FF32174B1A60174B1C60174B1C60174B1C603C3AFF3A164B1A70164B1C70164B1C608B
:400B8000164B1C60164B1C7010BDC0460000244077080040600024400701008000032440040324401000FE0010032440000224400402244075120000C80E2440880E244047
:400BC000480F2440080F2440C80F2440880F2440C4010020E4010020D8010020E8010020D001002010B50E4A13685B005B08136000230C490B600C490B600C4804680C492B
:400C0000214001600B490B600B490B6010210B4B19701368802109060B43136010BDC04600002440680024406C00244060002440FF5CFFFF880F2440C80F2440C40100206D
:400C4000014B1878C0B27047E4010020030004490A68FF2082435B0018401043086070471003244010B50A20FFF7AEFC10BDC04610B500F01DF810BD10B5044A1368802100
:400C800009060B431360FFF7EDFF10BD0000254010B5064B1B78002B04D1FFF7E9FF0122024B1A70FFF7E8FF10BDC046B401002010B50024184B1C60184A194B1A60194BDE
:400CC000194A1360194A1460194A1460194A1360194B1C600A20FFF781FC03210A20FFF79BFC16490A20FFF785FC154B1C60154B1C60154B1C60154B1C60154B1C60154B96
:400D00001C601022144B1A70144B1C80144B1C60144B1C6010BDC0460000254077080080600025400701008000032540040325401003254000022540040225402D16000086
:400D4000C80E2540880E2540480F2540080F2540C80F2540880F2540EC010020100200200C0200200802002010B50E4A13685B005B08136000230C490B600C490B600C4876
:400D800004680C49214001600B490B600B490B6010210B4B19701368802109060B43136010BDC04600002540680025406C00254060002540FF5CFFFF880F2540C80F25400A
:400DC000EC01002010B504000368002B09D00120FFF7E2FC2368013B2360002B03D0002003E0002001E08020000610BD10B5002839DBC023034208D00022284B1A601032A8
:400E0000274B1A70002310243DE0C3070FD5244B1B781B072BD5234B1B685B0001D5002300E0012310211E4A117001242BE0C30520D4830722D4C30605D51022184B1A70DF
:400E4000002300241FE0164B1B781B0719D5144B1B78DB0701D5252200E02422104B1A70002300240FE00123802424060BE00123012408E001238024640004E0002302248F
:400E800001E000230024012B02D1FFF76DFF02E0054A064B1A60200010BDC04668002540EC0100206000254017030000000F254070B582B004000D001600244B1B78102BD2
:400EC00040D10A20FFF78AFB214B1B68DB0734D4FA239B005E43019600221E4B1A601E4A1E4B1A601E4A1F4B1A606400FF231C40002D03D12422154B1A7004E02522134B3B
:400F00001A7001231C43184B1C600222174B1A60124B1C680823FF3320001840144B1B68C02423401843040001A8FFF74BFF2043EED0FFF75BFF040000E008240A20FFF7FD
:400F400043FB00E00424200002B070BDEC01002064002540080F254017030000000F2540ED0F0000C00F25404002254068002540400F254010B582B00D4B1B789B0613D589
:400F8000FA239B00594301910A4B18600A4B18680823FF331840040001A8FFF713FF2043F4D0FFF723FF00E0042002B010BDC046EC01002040022540000F2540F0B583B077
:400FC00004000D00164B1B789B0626D5FA239B005A430192134B18680223FF3318400700114B1B6804261E4001A8FFF7EBFE384333000343EED0002E05D00C4B1B682B70BB
:401000000B4A094B1A60FFF7F1FE002806D1002C04D10422074B1A6000E0042003B0F0BDEC010020000F2540C00F254040032540ED0F00006800254010B50A20FFF7CEFA7F
:40104000074B1C88A2B21400064B1B789B0602D504231A4394B20A20FFF7B6FA200010BD10020020EC01002010B50B20FFF7ACFA10BDC04610B500F01DF810BD10B5044AE7
:401080001368802109060B431360FFF7EDFF10BD0000264010B5064B1B78002B04D1FFF7E9FF0122024B1A70FFF7E8FF10BDC046BC01002010B500241B4B1C601B4A1C4B8A
:4010C0001A601C4B1C4A13601C4A14601C491D4A11601D4A13601D4B1C600B20FFF77EFA03210B20FFF798FA19490B20FFF782FA184B1C60184B1C604C22FF32174B1A60B9
:40110000174B1C60174B1C60174B1C603C3AFF3A164B1A70164B1C70164B1C60164B1C60164B1C7010BDC046000026407708004060002640070100800003264004032640CB
:401140001000FE001003264000022640040226406D190000C80E2640880E2640480F2640080F2640C80F2640880F26401202002014020020180200202C02002028020020A6
:4011800010B50E4A13685B005B08136000230C490B600C490B600C4804680C49214001600B490B600B490B6010210B4B19701368802109060B43136010BDC0460000264039
:4011C000680026406C00264060002640FF5CFFFF880F2640C80F264012020020014B1878C0B2704714020020030004490A68FF2082435B0018401043086070471003264043
:401200000230800803D00138FDD1C046C046C0467047EFF3108072B6704780F31088704770B50400FFF7F5FF0500102C05D8104A136803218B43136016E0202C07D80C495D
:401240000B6803229343023A13430B600CE0302C07D807490B6803229343013A13430B6002E00020FFF7C4F92800FFF7D6FF70BD3000104010B5CA4B1B68002B00D0984796
:40128000C84B1B68DB0702D50022C74B1A60C74B1B789B0622D4C64B1A680223FF331A421CD0C24B1B78DB070AD5C24A137802218B431370117809230B43DBB213700AE05A
:4012C000BC4A137820218B431370117870235B420B43DBB213700022B44B1A70B34B1B789B0600D55AE1B14B1B78DB0600D453E1AF4B1B689B0740D50222AF4B1A60AF498B
:401300000B681D321A40096880231B020B4000D001239B18AA4A1278D2B2934206D2A54A117804230B43DBB2137006E0A44A12789B1AA4490A68D31A0B60A24B1A68A24B9C
:401340001A600023A14A13609D4A1370A04B1A68802149020A431A6019689E4A0A401A60944A137802218B431370117801230B43DBB2137010228D4B1A708D4B1B681B07C2
:4013800039D508228C4B1A60934B1B689B040CD414E0924B1A68924909688A1891490968C9B211701A6801321A608F4B1B68DB06EFD1894A11688D4B0B4013608C4B1B68D3
:4013C0009B0605D57B4A117840230B43DBB213700022884B1A60884A854B1A60754A137820218B431370117810230B43DBB213706E4B10221A706E4B1B685B0648D5012290
:401400007E4B1A607E4B1B68DB0610D50F326F4B1A606D4B1A686B4B1A60664A117802230B43DBB213701222604B1A7025E0754B1B686A4A12689B1A072B03D804226D4B3D
:401440001A6011E0082B06D1634A1368A02109020B43136008E0604A1368802189010B4313600822634B1A60524A117820230B43DBB2137011224D4B1A70634A4E4B1A601C
:40148000624A116808230B4313600122604B1A60604B1B681B072AD55A4B1B684F4A1068181A0838082802D9002408200EE001240CE04A4B1A684A4909688A1849490968C3
:4014C000C9B211701A6801321A6001380028F0D1002C08D0404A1368802109020B4313600022444B1A600822414B1A6025E0494B1B685B0721D53B4B1B68384A1168414ACB
:40150000126891420DD20121414A1160334A1168334800684118DBB20B7013680133136008E002223A4B1A60224A117840230B43DBB2137004222E4B1A60374B1B68DB0645
:4015400020D42BE01F4B1A68344B1B689A420CD21C4B1A68324909688A181278D2B231490A601A6801321A600CE0FF222D4B1A60134B1B78DBB20A2B04D8114A1378013384
:40158000DBB213700D4B1B681F221340082BD9D10F3A254B1A6001E0FFF724FB10BDC046B00100208C0E2440880E2440C40100204C0F2440E4010020400F24400802244040
:4015C000D0010020D4010020D8010020880F244004022440FFFFFEFF60002440E8010020E00100204003244008032440FF5FFFFFC00F2440C80F2440ED0F0000800E244010
:4016000064002440C8010020FF0F0000480F24406C002440CC0F24408C0F2440CC010020DC01002040022440800F244010B5AF4B1B68002B00D09847AD4B1B68DB0702D54F
:401640000022AC4B1A60AC4B1B789B0628D5AB4B1B68DB0507D5AA4A1188C0239B000B431380012300E00023A44A1268D20706D5A34A118890239B000B4313800123002B47
:401680000FD09D4A1278D20701D5012200E002229B49088802430A800021974A117000E00023954A1278920600D417E1934A1268D20611D51022934B1A608F4B1B78DB0780
:4016C00001D5012300E002238D4A11880B4313801022894B1A7007E1874A1278120720D5864A126892070AD50222864B1A60844A118888239B000B431380012311E07E4A1D
:401700001278D20703D525217B4A117009E02421794A11707C4A1268002A02D014397B4A1160754A1278520700D4AEE0724A1278D20749D5764A1268120727D5754A1268E8
:40174000754909681F240C40744909686418141B082C09D8002C16D1714A1168714B0B401360012308340EE008240CE06B4A11686D48006841186D480068C0B20870116872
:4017800001311160013C002CF0D119E0604A1268520715D5614A116863480068411863480068C0B208701168013111601168594A1268914203D204215D4A116000E00123D4
:4017C0005C495D4A116060E04C4A1268920726D502224C4B1A6059490B681D321A40096880231B020B4000D001239B18544A1168CB1A13601268534B1A60414A1188842366
:401800009B000B431380504B1A68802149020A431A6019684D4A0A401A60012335E04C4A1268D2061ED427E0454A1168364A126891421DD2344A1268013A414909688A42A8
:4018400004D1402243490A6030490A603C4A11684148006841180978C9B240480160116801311160354A12681F210A40082ADBD11021384A116008E0354A1268520604D577
:401880002F4B1A682F4B1A600123002B2CD0244A1168244B0B4013600023314A13601B4A1360304B1B789B070ED5134B1B78DB0701D5092300E00A23114A11880B431380A6
:4018C00060220D4B1A700FE0274B1B689B0601D5182200E01022164B1A6005E0064B1B78DB0601D4FFF740FA10BDC046B80100208C0E2540880E2540EC0100200C0F254020
:4019000010020020000F254000020020880F2540CC0F2540FC010020080325400C02002060002540FFFEFFFFF80100204003254068002540ED0F0000C00F254008022540FB
:40194000F40100200802002004022540FFFFFEFF8C0F2540800F25400402002040022540C80F2540F00100206400254010B5CA4B1B68002B00D09847C84B1B68DB0702D565
:401980000022C74B1A60C74B1B789B0622D4C64B1A680223FF331A421CD0C24B1B78DB070AD5C24A137802218B431370117809230B43DBB213700AE0BC4A137820218B4302
:4019C0001370117870235B420B43DBB213700022B44B1A70B34B1B789B0600D55AE1B14B1B78DB0600D453E1AF4B1B689B0740D50222AF4B1A60AF490B681D321A40096897
:401A000080231B020B4000D001239B18AA4A1278D2B2934206D2A54A117804230B43DBB2137006E0A44A12789B1AA4490A68D31A0B60A24B1A68A24B1A600023A14A136027
:401A40009D4A1370A04B1A68802149020A431A6019689E4A0A401A60944A137802218B431370117801230B43DBB2137010228D4B1A708D4B1B681B0739D508228C4B1A602D
:401A8000934B1B689B040CD414E0924B1A68924909688A1891490968C9B211701A6801321A608F4B1B68DB06EFD1894A11688D4B0B4013608C4B1B689B0605D57B4A11788C
:401AC00040230B43DBB213700022884B1A60884A854B1A60754A137820218B431370117810230B43DBB213706E4B10221A706E4B1B685B0648D501227E4B1A607E4B1B68C3
:401B0000DB0610D50F326F4B1A606D4B1A686B4B1A60664A117802230B43DBB213701222604B1A7025E0754B1B686A4A12689B1A072B03D804226D4B1A6011E0082B06D150
:401B4000634A1368A02109020B43136008E0604A1368802189010B4313600822634B1A60524A117820230B43DBB2137011224D4B1A70634A4E4B1A60624A116808230B43EC
:401B800013600122604B1A60604B1B681B072AD55A4B1B684F4A1068181A0838082802D9002408200EE001240CE04A4B1A684A4909688A1849490968C9B211701A680132A9
:401BC0001A6001380028F0D1002C08D0404A1368802109020B4313600022444B1A600822414B1A6025E0494B1B685B0721D53B4B1B68384A1168414A126891420DD2012127
:401C0000414A1160334A1168334800684118DBB20B7013680133136008E002223A4B1A60224A117840230B43DBB2137004222E4B1A60374B1B68DB0620D42BE01F4B1A68A1
:401C4000344B1B689A420CD21C4B1A68324909688A181278D2B231490A601A6801321A600CE0FF222D4B1A60134B1B78DBB20A2B04D8114A13780133DBB213700D4B1B687D
:401C80001F221340082BD9D10F3A254B1A6001E0FFF776FA10BDC046C00100208C0E2640880E2640120200204C0F264014020020400F2640080226402802002020020020AD
:401CC00018020020880F264004022640FFFFFEFF600026402C020020300200204003264008032640FF5FFFFFC00F2640C80F2640ED0F0000800E2640640026401C02002000
:401D0000FF0F0000480F26406C002640CC0F26408C0F2640340200202402002040022640800F2640014B18687047C046400100200E4B70B500251E000D4CE41AA410A542EE
:401D400004D0AB00F35898470135F8E700F03EF8084B00251E00084CE41AA410A54204D0AB00F35898470135F8E770BDD81D0000D81D0000D81D0000E01D00000300821898
:401D8000934202D019700133FAE770470000000000300F40000800400F400008030405060708090A0B0C0E0F101112131415161718191B1C1D1E1F202122232526272829FA
:401DC0002A2B2E2F3031323334354300F8B5C046F8BC08BC9E467047D101000069030000F8B5C046F8BC08BC9E467047A9010000001E0000C000002088000000F0000000D5
:401E000000000000010000000000C05D80BB000030000000006CDC02F0000000040404000000000000000000000000000000000000000000000000000000000000000000D3
:401E4000CA1D00000000000000000000000000000000000000000000000000000000000000000000000000000000000000000000000000000000000000000000000000007B
:401E8000E000002000000000000000000000000000000000000000000000000000000000000000000000000000000000000000000000000000000000000000000000000022
:401EC00000000000000000000000000000000000000000000000000000000000000000000000000000000000000000000000000000000000000000000000000000000000E2
:401F000000000000000000000000000000000000000000000000000000000000000000000000000000000000000000000000000000000000000000000000000000000000A1
:401F40000000000000000000000000000000000000000000000000000000000000000000000000000000000000000000000000000000000000000000000000000000000061
:401F80000000000000000000000000000000000000000000000000000000000000000000000000000000000000000000000000000000000000000000000000000000000021
:020000040003F7
:0200000490303A
:02000000313A93
:0200000490402A
:4000000000000000000000000000000000000000000000000000000000000000000000000000000000000000000000000000000000000000000000000000000000000000C0
:400040000000000000000000000000000000000000000000000000000000000000000000000000000000000000000000000000000000000000000000000000000000000080
:0200000490501A
:0C0000000002101311A00001101C42DAD5
:0200000490600A
:0100000001FE
:00000001FF