:400000000010002011000000410300004103000010B500F09DF9C04670B5144C23688025ED022B432360302000F046FA104A114B1A602022104B1A60103A104B1A60802289
:4000400012060F4B1A6025600E4A0F4B1A600F4A0F4B1A600F49092000F0D4F9092000F0BBF900220C4B1A6070BDC04600010B400600008004010B40080202400C020240C7
:4000800008010B401D000080000002402200008040000240C90600000C020B4010B572B600240FE01F486200131959000B00411889881A5AC31858880004104300F03AF955
:4000C0000134E4B2012CEDD9EE221204164B1A60EE221202154B1A609922154B1A6099231B04144A1360144A1360144A117806230B43DBB213703022114B1A609022920255
:40010000104B1A60D82212010F4B1A6002230F4A136031210E4A11600E4A1360FFF77CFF10BDC046E4150000000001400C0001401000014000500F4030500F4000700F40E9
:4001400000000440080004400803044000040440080404401804044010B5064C2378002B07D1054B002B02D0044800E000BF0123237010BD4001002000000000D0150000F1
:40018000084B10B5002B03D00749084800E000BF07480368002B00D110BD064B002BFBD09847F9E70000000044010020D0150000C00000200000000000B583B062B600F047
:4001C0000BF800F0ABF86B46D81D00F047F8642000F050F9F7E7C0467047C046F8B504000F00150000F012FD14220021402000F005FC1421200000F08FFC142000F060FC6A
:4002000014220121402000F0F9FB060000240FE06B1E9C4205DA39191422002000F0A0FC04E039191422012000F09AFC0134E4B2AC4201D2002EEBD0142000F041FCC0B234
:40024000F8BDC04610B582B001AC02222100FF20FFF7C4FF607802B010BDC04610B50400022201000420FFF7B9FF2378DB082370002801D00023237010BDC046F8B500AFF6
:4002800004000E00150000F0C1FC2B000833DB08DB006A46D31A9D461C7032785A7072789A7000232A006946402000F025FD050009E0084800F0B8FD0A220749200001F0F4
:4002C00036F900F0B1FD00F089FC8307F1D5E8B2BD46F8BDD41500008801002000B583B001A980230B7000234B7002220020FFF7C5FF03B000BDC04600B583B00100A020DD
:40030000000200F0E5FF031201A90B70487002220520FFF7B3FF03B000BDC04610B500F03BFAFFF7DBFF6420FFF7E6FFFFF78AFF10BDC04610B50A00002101F0FCF810BD81
:4003400010B501F0B1F803680C2B00D1FEE7FEE770B50F4E0F4D13E029686B68AC68002202E001C901C30432A242FAD1E868002202E0002102C304328242FAD11035013E9E
:40038000002EE9D101F096F8FFF716FFFEE7C046010000006C16000010B500230AE0032B03D89A000949505800E009489900094A885001332F2BF2D9FFF770FE8022D205C3
:4003C000116801230B43136010BDC0460000000041030000000000201F2318401E3B8340014A13607047C04600E100E01F2318401E3B8340014A13607047C04680E100E004
:4004000001BE704770B504000D001F2802D90020FFF7F6FF1034A40080239B059C4664442068256070BDC04670B504000E00032902D90020FFF7E4FF1F2C02D90020FFF77B
:40044000DFFF03252540ED00063500F003FDA408A400074B9C46644421680323AB4099430B003100A9401943216000F0F7FC70BD00E400E010B5040006E0084B586800F0CF
:40048000DFFC074B9C46644480231B029C42F4D8024B9868604300F0D3FC10BDC40000200080FFFF10B5034B1B7B584300F0C8FC10BDC046C4000020F0B557464E46C0B444
:4004C00083B0040000F0C6FC0190E71E2D2F74D83F4B1B78DBB29C4208D83E4B1B78DBB29A463D4B1B78DBB2994631E03B4B1B78DBB29C4208D83A4B1B78DBB29A46394BDF
:400500001B78DBB2994623E0374B1B78DBB29C4208D8364B1B78DBB29A46354B1B78DBB2994615E0334B1B78DBB29C4208D8324B1B78DBB29A46314B1B78DBB2994607E029
:400540002F4B1B78DBB29A462E4B1B78DBB299462D4BDE5D2F2E09D92A2C07D919222B4B1A60052000F06CFC192503E0274B1D683F231D40B54206D9234BDA5D234B1A607F
:40058000052000F05DFC1F4B9C4664442378DBB21F4A13601F4B52461A601F4B4A461A600520FFF77FFFB5420AD2174BDA5D174B1A60052000F044FC02E00020FFF720FF98
:4005C000019800F04BFC03B00CBC91469A46F0BDC0F1FF0FC1F1FF0FC2F1FF0FC3F1FF0FC4F1FF0FC5F1FF0FC6F1FF0FC7F1FF0FC8F1FF0FC9F1FF0FCAF1FF0FCBF1FF0F16
:40060000CCF1FF0FCDF1FF0FF01500002CFF0B4028FF0B401CFF0B4020FF0B40034B1868C0231B02184000D00120704700010B4010B500F00FFC044A1368C02109020B4389
:40064000136000F00BFC10BD00010B4010B500F001FC08490A68084B1A408024E40122430A600A6813408022120213430B6000F0F5FB10BD00010B40FF3FFFFF70B50500E2
:4006800000F0E8FB0400FFF7C9FF002803D0FFF7DDFF012100E0002108482840084A1568084B2B40184310601368012901D1FFF7BFFF200000F0D2FB70BDC046040404005E
:4006C00010020B40FBFBFBFF10B5244B1B685B0715D5234B1B685B070ED5224BD969042001401F4C22688A432260DA698243DA611B69002B00D098470420FFF7BFFF174B41
:400700001B685B0518D5164B1B685B0510D5154BD9698022D2001140114802688A430260D969114A0A40DA615B69002B00D098478020C000FFF7A2FF084B1B685B030CD59B
:40074000074B1B685B0304D5064B9B69002B00D098478020C002FFF791FF10BD10020B40D80000205C010020FFFBFFFF10B50B20FFF732FE10BDC04610B500F01DF810BD3F
:4007800010B5044A1368802109060B431360FFF7EDFF10BD0000074010B5064B1B78002B04D1FFF7E9FF0122024B1A70FFF7E8FF10BDC0467C01002010B51B4A11680C23A4
:4007C0000B4313600024194B1C60194A194B1A60194B1A4A13601A4A14601A4A14601A4A13601A4B1C600B20FFF700FE03210B20FFF71AFE16490B20FFF704FE154B1C6076
:40080000154B1C60154B1C60154B1C60154B1C60154B1C601022154B1A70154B1C80154B1C60154B1C6010BD70000740000007407708008060000740070100800003074059
:4008400004030740100307400002074004020740650E0000C80E0740880E0740480F0740080F0740C80F0740880F0740A8010020C8010020B4010020C001002010B5144A4A
:4008800013685B005B081360002312490B6012490B601248046812492140016011490B6011490B601149124B19601249124B19601249134B19601349134B19601021134B1B
:4008C00019701368802109060B43136010BDC04600000740680007406C00074060000740FF5CFFFF880F0740C80F0740F3070000800F0740ED0F0000C00F0740FF0F00001B
:40090000400F074017030000000F0740A801002010B504000368002B09D00120FFF7C2FD2368013B2360002B03D0002003E0002001E08020000610BD10B5002839DBC02337
:40094000034208D00022284B1A601032274B1A70002310243DE0C3070FD5244B1B781B072BD5234B1B685B0001D5002300E0012310211E4A117001242BE0C30520D48307EE
:4009800022D4C30605D51022184B1A70002300241FE0164B1B781B0719D5144B1B78DB0701D5252200E02422104B1A70002300240FE00123802424060BE00123012408E0F5
:4009C00001238024640004E00023022401E000230024012B02D1FFF751FF02E0054A064B1A60200010BDC04668000740A80100206000074017030000000F074070B582B05C
:400A000004000D001600244B1B78102B40D10B20FFF7ECFC214B1B68DB0734D4FA239B005E43019600221E4B1A601E4A1E4B1A601E4A1F4B1A606400FF231C40002D03D1F0
:400A40002422154B1A7004E02522134B1A7001231C43184B1C600222174B1A60124B1C680823FF3320001840144B1B68C02423401843040001A8FFF74BFF2043EED0FFF793
:400A80005BFF040000E008240B20FFF7A5FC00E00424200002B070BDA801002064000740080F074017030000000F0740ED0F0000C00F07404002074068000740400F0740E1
:400AC00010B582B0104B1B789B061AD5FA239B00584301900D4B1B689B0601D5182200E010220B4B1A600B4B18681223FF331840040001A8FFF70CFF2043F4D0FFF71CFFB4
:400B000000E0042002B010BDA80100206400074068000740000F074010B582B00D4B1B789B0613D5FA239B00594301910A4B18600A4B18680823FF331840040001A8FFF76E
:400B4000E7FE2043F4D0FFF7F7FE00E0042002B010BDC046A801002040020740000F0740F0B583B004000D00164B1B789B0626D5FA239B005A430192134B18680223FF33B7
:400B800018400700114B1B6804261E4001A8FFF7BFFE384333000343EED0002E05D00C4B1B682B700B4A094B1A60FFF7C5FE002806D1002C04D10422074B1A6000E0042017
:400BC00003B0F0BDA8010020000F0740C00F074040030740ED0F00006800074010B50B20FFF704FC074B1C88A2B21400064B1B789B0602D504231A4394B20B20FFF7ECFBB9
:400C0000200010BDC8010020A801002010B50B20FFF7ECFB044B1C88A4B200221A800B20FFF7DAFB200010BDC801002070B52C4B1B6820251D402B4C03E00120FFF732FC17
:400C4000013C00F0D5F8002801D1002CF5D1002C44D0002000F0D4F8234A1168234B0B401360234A13685B005B081360002D18D0002000F0C5F80A20FFF714FC012000F024
:400C8000BFF80A20FFF70EFC164C03E00120FFF709FC013C00F0C0F8002803D1002CF5D100E0104C002C08D0002000F0A9F80A20FFF7F8FB01220F4B1A600D4A13688021B1
:400CC00009060B431360084A1168084B0B40E02109030B431360012000F092F870BDC04664000740204E000000000140FFFFF0FF0000074068000740F0B583B001900C006D
:400D000017001D00002917D02A4B1B78102B08D10B20FFF76BFB284B1B68DB070ED508260FE0244B1B78602B0AD1244A138808218B431380002604E0042602E0002600E0DD
:400D40000426002E2FD128221A4B1A7000231C4A13601C4A13601C4B1F601C4B1C60EAB21B4B1A70019B5C00FF231C40134A138802218B4313804023164A13601649174AD0
:400D800011601421FF31164A1160164A1360EB0704D5FFF74BFF144B1C6004E0124B1C600222124B1A600B20FFF716FB300003B0F0BDC046A801002064000740C8010020F6
:400DC000B0010020C0010020CC010020C4010020AC010020800F074017030000000F0740080F0740880F07404002074068000740024B186840090123184070470400044057
:400E000004490A68D2B210239A430001184010430860704700000440024B186800090123184070470400044070B50500002402E000F0B6F90134285D0028F9D170BDC04651
:400E40000230800804D0C0460138FDD1C046C046C0467047EFF3108072B6704780F310887047C04610B5AD4B1B68002B00D09847AB4B1B68DB0702D50022AA4B1A60AA4B23
:400E80001B789B0628D5A94B1B68DB0507D5A84A1188C0239B000B431380012300E00023A24A1268D20706D5A14A118890239B000B4313800123002B0FD09B4A1278D2077A
:400EC00001D5012200E002229949088802430A800021954A117000E00023934A1278920600D414E1914A1268D20611D51022914B1A608D4B1B78DB0701D5012300E0022381
:400F00008B4A11880B4313801022874B1A7004E1854A1278120720D5844A126892070AD50222844B1A60824A118888239B000B431380012311E07C4A1278D20703D5252173
:400F4000794A117009E02421774A11707A4A1268002A02D01439794A1160734A1278520700D4ABE0704A1278D20749D5744A1268120727D5734A1268734909680F240C4098
:400F8000724909686418141B082C09D8002C16D16F4A11686F4B0B401360012308340EE008240CE0694A11686B48006841186B480068C0B20870116801311160013C002CF8
:400FC000F0D119E05E4A1268520715D55F4A116861480068411861480068C0B208701168013111601168574A1268914203D204215B4A116000E001235A495B4A11605DE0BE
:401000004A4A1268920726D502224A4B1A6057490B680D321A40096880231B020B4000D001239B18524A1168CB1A13601268514B1A603F4A118884239B000B4313804E4B31
:401040001A68802149020A431A6019684B4A0A401A60012332E04A4A1268D20612D424E0434A1168344A1268914211D2404A11684448006841180978C9B2434801601168F6
:4010800001311160394A12680F210A40082AE7D1374A1168284A1268914202D14021274A11603A493A4A116008E0354A1268520604D52F4B1A682F4B1A600123002B2CD098
:4010C000234A1168234B0B4013600023314A13601A4A1360304B1B789B070ED5124B1B78DB0701D5092300E00A23114A11880B43138060220C4B1A700FE0284B1B689B06C4
:4011000001D5182200E01022154B1A6005E0064B1B78DB0601D4FFF7B1FB10BD800100208C0E0740880E0740A80100200C0F0740C8010020000F0740CC010020880F074031
:40114000CC0F0740B801002008030740B401002060000740FFFEFFFFBC0100204003074068000740ED0F0000C00F074008020740B0010020C001002004020740FFFFFEFF38
:401180008C0F0740C401002040020740F3070000800F0740C80F0740AC01002064000740044B1B680F221340082BF9D0024B18607047C04608020640400206400022430860
:4011C0008B4274D303098B425FD3030A8B4244D3030B8B4228D3030C8B420DD3FF22090212BA030C8B4202D31212090265D0030B8B4219D300E0090AC30B8B4201D3CB0349
:40120000C01A5241830B8B4201D38B03C01A5241430B8B4201D34B03C01A5241030B8B4201D30B03C01A5241C30A8B4201D3CB02C01A5241830A8B4201D38B02C01A524173
:40124000430A8B4201D34B02C01A5241030A8B4201D30B02C01A5241CDD2C3098B4201D3CB01C01A524183098B4201D38B01C01A524143098B4201D34B01C01A5241030981
:401280008B4201D30B01C01A5241C3088B4201D3CB00C01A524183088B4201D38B00C01A524143088B4201D34B00C01A5241411A00D20146524110467047FFE701B50020D8
:4012C00000F0F0F802BDC0460029F7D076E7704703460B437FD4002243088B4274D303098B425FD3030A8B4244D3030B8B4228D3030C8B420DD3FF22090212BA030C8B4280
:4013000002D31212090265D0030B8B4219D300E0090AC30B8B4201D3CB03C01A5241830B8B4201D38B03C01A5241430B8B4201D34B03C01A5241030B8B4201D30B03C01AA5
:401340005241C30A8B4201D3CB02C01A5241830A8B4201D38B02C01A5241430A8B4201D34B02C01A5241030A8B4201D30B02C01A5241CDD2C3098B4201D3CB01C01A5241F5
:4013800083098B4201D38B01C01A524143098B4201D34B01C01A524103098B4201D30B01C01A5241C3088B4201D3CB00C01A524183088B4201D38B00C01A524143088B425B
:4013C00001D34B00C01A5241411A00D201465241104670475DE0CA0F00D04942031000D34042534000229C4603098B422DD3030A8B4212D3FC22890112BA030A8B420CD318
:40140000890192118B4208D3890192118B4204D389013AD0921100E08909C3098B4201D3CB01C01A524183098B4201D38B01C01A524143098B4201D34B01C01A52410309DF
:401440008B4201D30B01C01A5241C3088B4201D3CB00C01A524183088B4201D38B00C01A5241D9D243088B4201D34B00C01A5241411A00D20146634652415B10104601D3F6
:401480004042002B00D54942704763465B1000D3404201B5002000F005F802BD0029F8D016E770477047C046014B18687047C0463C0100200E4B70B500251E000D4CE41A1D
:4014C000A410A54204D0AB00F35898470135F8E700F0BAF8084B00251E00084CE41AA410A54204D0AB00F35898470135F8E770BD5416000054160000541600005C160000D3
:40150000931E10B50C00222B02D9002008700DE00A2A06D1002804DA2D2340420B70012100E00021611800F00FF8200010BD10B5FFF7E6FF10BD03008218934202D0197064
:401540000133FAE770470000F0B58FB0170006000C002522184904A800F030F80020BB1E0500222B01D9207023E06B1C0293E31801933000013B39000393FFF7A5FE04AB40
:401580005B5C039A300013703900FFF717FE061E01D0029DE9E7019B187023001A1B954206DD1A78615D197062550133013DF5E720000FB0F0BDC04620160000002310B5B8
:4015C0009A4203D0CC5CC4540133F9E710BD0000000000000D0A575249544520544F3A200A0D000000300F40000400400F400004030405060708090A0B0C0E0F1011121381
:401600001415161718191B1C1D1E1F2021222325262728292A2B2E2F3031323334354300303132333435363738396162636465666768696A6B6C6D6E6F70717273747576DB
:401640007778797A00000000F8B5C046F8BC08BC9E4670478101000099030000F8B5C046F8BC08BC9E4670475901000080160000C0000020800000009000000000000000FE
:4016800000000000010000000000C05D80BB000030000000006CDC020404040000000000000000000000000000000000000000000000000000000000000000001E16000017
:4016C000000000000000000000000000000000000000000000000000000000000000000000000000000000000000000000000000000000000000000000000000DC000020EE
:4017000000000000000000000000000000000000000000000000000000000000000000000000000000000000000000000000000000000000000000000000000000000000A9
:401740000000000000000000000000000000000000000000000000000000000000000000000000000000000000000000000000000000000000000000000000000000000069
:401780000000000000000000000000000000000000000000000000000000000000000000000000000000000000000000000000000000000000000000000000000000000029
:4017C00000000000000000000000000000000000000000000000000000000000000000000000000000000000000000000000000000000000000000000000000000000000E9
:0200000490303A
:020000002A18BC
:0200000490402A
:200000000000000000000000000000000000000000000000000000000000000000000000E0
:0200000490501A
:0C000000000204C81193110104CF3BABB7
:0200000490600A
:0100000001FE
:00000001FF